:020000040000FA
:1000000000040020E508000079050000C508000094
:10001000830500008D05000097050000000000002A
:1000200000000000000000000000000009090000BE
:10003000A105000000000000AB050000B5050000B0
:10004000BF050000C9050000D3050000DD05000064
:10005000E7050000F1050000FB05000005060000B3
:100060000F06000019060000230600002D06000000
:1000700037060000410600004B0600005506000050
:100080005F06000069060000730600007D060000A0
:1000900087060000910600009B060000A5060000F0
:1000A000AF060000B9060000C3060000CD06000040
:1000B000D7060000E1060000EB060000F506000090
:1000C000FF06000009070000130700001D070000DD
:1000D00027070000310700003B070000450700002C
:1000E0004F07000059070000630700006D0700007C
:1000F00077070000810700008B07000095070000CC
:100100009F0700001FB500F003F88DE80F001FBD2A
:1001100000F0DEBB1FB56FF00100009040100390AF
:10012000029001904FF010208069000B420900F00E
:100130001F045DF822300120A04083434DF8223097
:10014000684600F044F91FBDF0B54FF6FF734FF459
:10015000B4751A466E1E11E0A94201D3344600E080
:100160000C46091B30F8027B641E3B441A44F9D14B
:100170009CB204EB134394B204EB12420029EBD17E
:1001800098B200EB134002EB124140EA0140F0BD8F
:10019000DD4992B00446D1E90001CDE91001FF220A
:1001A0004021684600F03AFB94E80F008DE80F000C
:1001B000684610A902E004C841F8042D8842FAD12B
:1001C00010216846FFF7C0FF1090AA208DF8440068
:1001D000FFF7A0FF00F0F2F84FF01024A069102202
:1001E0006946803000F001F9A069082210A900F0EA
:1001F000FCF800F0D7F84FF080510A6949690068AF
:100200004A43824201D8102070470020704710B541
:10021000D0E900214FF0805002EB8103026944696C
:100220006243934209D84FF01022536903EB8103D4
:100230000169406941438B4201D9092010BD5069D1
:10024000401C01D0002010BD0F2010BD70B501680A
:100250000446AE4D4FF01020062951D2DFE801F0E0
:10026000320318283B1DD4E90265646829463046EC
:1002700000F0CDF82A462146304600F0B6F8AA0034
:100280002146304600F09EFA002800D0032070BDC1
:1002900000F050FB4FF4805007E0201DFFF7ABFF4C
:1002A0000028F4D100F046FB60682860002070BD93
:1002B000241D94E80700920000F084FA0028F6D08C
:1002C0000E2070BD8069401C12D0201DFFF79FFFDB
:1002D0000028F6D109E08069401C09D0201DFFF7F5
:1002E0008AFF0028EDD1606820B12046FFF750FF5B
:1002F000042070BDFFF70EFF00F060F800F052F828
:10030000072070BD10B50C46182802D001200860E7
:1003100010BD2068FFF79AFF206010BD4FF0102439
:10032000A069401C05D0A569A66980353079AA2846
:1003300008D06069401C2DD060690068401C29D03D
:1003400060692CE010212846FFF7FEFE31688142EB
:100350001CD1A16901F18002C03105E030B108CAA9
:1003600051F8040D984201D1012000E000208A429A
:10037000F4D158B1286810B1042803D0FEE728460C
:1003800000F057F861496868086008E000F016F866
:1003900000F008F84FF480500168491C01D000F0CB
:1003A000A3FAFEE7BFF34F8F59480168594A01F499
:1003B000E06111430160BFF34F8FFEE74FF0102063
:1003C0008169491C02D0806900F0ADB87047524A7B
:1003D00001681160121D416811604F4A8168103236
:1003E0001160111DC068086070472DE9F041174683
:1003F0000D460646002406E03046296800F0A6F8BF
:10040000641C2D1D361DBC42F6D3BDE8F08170B5CD
:100410000C4605464FF4806608E0284600F083F855
:10042000B44205D3A4F5806405F58055002CF4D1C1
:1004300070BD4168044609B1012500E000254FF078
:1004400010267069A268920000F0BCF9C8B120467D
:1004500000F01AF89DB17669A56864684FF4002031
:1004600084420AD2854208D229463046FFF7CFFFA0
:100470002A4621463046FFF7B8FFFFF79FFFFFF7F8
:1004800091FFFFF747FEF8E72DE9FF414FF01024F9
:10049000616980680D0B01EB800000F6FF70010BB5
:1004A00000200090019002900246039068460123CC
:1004B0000BE0560902F01F0C50F8267003FA0CFCF2
:1004C00047EA0C0740F82670521CAA42F1D30AE012
:1004D0004A0901F01F0650F8225003FA06F6354388
:1004E00040F82250491C8029F2D3A169090B4A091E
:1004F00001F01F0150F822408B409C4340F82240FD
:10050000FFF765FFBDE8FF815809000000000020EB
:100510000CED00E00400FA050006004014480168F4
:100520000029FCD07047134A0221116010490B6862
:10053000002BFCD00F4B1B1D186008680028FCD056
:100540000020106008680028FCD07047094B10B5E7
:1005500001221A60064A1468002CFCD00160106861
:100560000028FCD00020186010680028FCD010BDC6
:1005700000E4014004E5014008208F49096809585A
:10058000084710208C4909680958084714208A49EF
:100590000968095808471820874909680958084711
:1005A0003020854909680958084738208249096878
:1005B000095808473C2080490968095808474020E5
:1005C0007D4909680958084744207B49096809584A
:1005D0000847482078490968095808474C20764957
:1005E000096809580847502073490968095808479D
:1005F0005420714909680958084758206E4909680C
:10060000095808475C206C49096809580847602068
:100610006949096809580847642067490968095801
:100620000847682064490968095808476C206249EE
:1006300009680958084770205F4909680958084740
:1006400074205D4909680958084778205A490968A3
:10065000095808477C2058490968095808478020EC
:1006600055490968095808478420534909680958B9
:100670000847882050490968095808478C204E4986
:1006800009680958084790204B49096809580847E4
:10069000942049490968095808479820464909683B
:1006A000095808479C204449096809580847A02070
:1006B0004149096809580847A4203F490968095871
:1006C0000847A8203C49096809580847AC203A491E
:1006D000096809580847B020374909680958084788
:1006E000B4203549096809580847B82032490968D3
:1006F00009580847BC203049096809580847C020F4
:100700002D49096809580847C4202B490968095828
:100710000847C8202849096809580847CC202649B5
:10072000096809580847D02023490968095808472B
:10073000D4202149096809580847D8201E4909686A
:1007400009580847DC201C49096809580847E02077
:100750001949096809580847E420174909680958E0
:100760000847E8201449096809580847EC2012494D
:10077000096809580847F0200F49096809580847CF
:10078000F4200D49096809580847F8200A49096802
:1007900009580847FC2008490968095808475FF4C8
:1007A0008070054909680958084700000348044952
:1007B000024A034B70470000000000206809000057
:1007C0006809000040EA010310B59B070FD1042A15
:1007D0000DD310C808C9121F9C42F8D020BA19BA0C
:1007E000884201D9012010BD4FF0FF3010BD1AB171
:1007F000D30703D0521C07E0002010BD10F8013BC6
:1008000011F8014B1B1B07D110F8013B11F8014BEC
:100810001B1B01D1921EF1D1184610BD02F0FF033F
:1008200043EA032242EA024200F005B870477047EB
:1008300070474FF000020429C0F0128010F0030C42
:1008400000F01B80CCF1040CBCF1020F18BF00F8C3
:10085000012BA8BF20F8022BA1EB0C0100F00DB872
:100860005FEAC17C24BF00F8012B00F8012B48BFD0
:1008700000F8012B70474FF0000200B51346944674
:100880009646203922BFA0E80C50A0E80C50B1F1E8
:100890002001BFF4F7AF090728BFA0E80C5048BFFC
:1008A0000CC05DF804EB890028BF40F8042B08BF9A
:1008B000704748BF20F8022B11F0804F18BF00F896
:1008C000012B7047014B1B68DB68184700000020B4
:1008D00009480A497047FFF7FBFFFFF713FC00BD0B
:1008E00020BFFDE7064B1847064A1060016881F3F8
:1008F0000888406800470000680900006809000097
:100900001D030000000000201EF0040F0CBFEFF3D9
:100910000881EFF30981886902380078182803D12B
:1009200000E00000074A1047074A12682C3212689C
:100930001047000000B5054B1B68054A9B589847B7
:1009400000BD000005030000000000205409000065
:1009500004000000001000000000000000FFFFFF86
:040960000090D00330
:10100000881100207DB0010079960000CDAF01006D
:1010100079960000799600007996000000000000A3
:10102000000000000000000000000000D9B0010036
:101030007996000000000000799600007996000083
:1010400041B1010047B10100799600007996000096
:101050007996000079960000799600007996000054
:101060004DB10100799600007996000053B101005E
:101070007996000059B101005FB1010065B101002E
:101080007996000079960000799600007996000024
:101090007996000079960000799600007996000014
:1010A0006BB1010071B101007996000079960000E2
:1010B00079960000799600007996000079960000F4
:1010C00077B10100799600007996000079960000CA
:1010D00079960000799600007996000079960000D4
:1010E00079960000799600007996000079960000C4
:1010F00079960000799600007996000079960000B4
:10110000799600007996000000F002F819F093FF3C
:101110000AA090E8000C82448344AAF10107DA4552
:1011200001D119F088FFAFF2090EBAE80F0013F0F1
:10113000010F18BFFB1A43F00103184734A5010043
:1011400054A501000A4410F8014B14F00F0508BF24
:1011500010F8015B240908BF10F8014B6D1E05D083
:1011600010F8013B6D1E01F8013BF9D1641E03D05C
:10117000641E01F8015BFBD19142E4D3704700008B
:101180000023002400250026103A28BF78C1FBD890
:10119000520728BF30C148BF0B6070471FB500F031
:1011A0003DF88DE80F001FBD1EF0040F0CBFEFF3DC
:1011B0000880EFF30980014A10470000CB9400003B
:1011C0008269034981614FF00100104470470000BB
:1011D000D511000001B41EB400B510F085F901B4BA
:1011E0000198864601BC01B01EBD0000F0B4404627
:1011F000494652465B460FB402A0013001B506488D
:10120000004700BF01BC86460FBC80468946924617
:101210009B46F0BC704700000911000019F008BFA0
:1012200070B51C4C054608202070A01C00F065F825
:101230005920A08029462046BDE8704006F067BBD3
:1012400010B506F06FFB13490020891E087010BD11
:1012500070B50C460F49891E097829B1A0F16001CB
:10126000532906D3012011E0602802D043F2010087
:101270000CE020CC084E94E80E0006EB8000A0F5B0
:101280008050241FD0F8806E2846B047206070BD83
:10129000012070470A000020BCB1010010B50446CF
:1012A0000021012000F03FF80021182000F03BF859
:1012B00000210B2000F037F80421192000F033F84A
:1012C00004210D2000F02FF804210E2000F02BF84F
:1012D00004210F2000F027F80421C84300F023F870
:1012E0000721162000F01FF80721152000F01BF839
:1012F0002046FFF795FF002010BD81210180704737
:10130000FFF79EBF10487047104A10B514680F4B86
:101310000F4A08331A60FFF79BFF0C48001D04605A
:1013200010BD704770474907090E002806DA00F023
:101330000F0000F1E02080F8141D704700F1E0205C
:1013400080F800147047000003F9004310050240C4
:101350000100000130B5FB4D044610280AD0112CC5
:1013600006D02846122C817806D0132C08D0FFDF37
:10137000AC7030BDFFDFFBE71129F9D0FFDFF7E7E5
:101380001129F5D0FFDFF3E770B50EF03CF9044604
:101390000FF072FE201AC4B206200CF0F9FA0546CE
:1013A00006200CF0FDFA2E1A07200CF0F1FA054683
:1013B00007200CF0F5FAE349281A32188878122829
:1013C0000DD000231A4413280BD0002002440878C3
:1013D000022808D000201044201AC0B270BD01239A
:1013E000F0E70120F2E70120F5E7D64810B5C17813
:1013F00094B0A9B15FF017018DF800104168CDF8E5
:1014000002100089ADF8060009A968460AF0D1F873
:101410000446112801D004B1FFDF14B0204610BDEE
:101420003221E9E702210CF008BB2DE9F04194B02C
:101430001D4690460E460746FFF7F4FF04000BD00A
:101440002078222804D3A07FC0F34010A84206D100
:10145000082014B0BDE8F08143F20200F9E737201C
:101460008DF80000ADF802703DB101208DF8040048
:101470008DF805608DF8068002E000208DF80400EC
:1014800009A968460AF095F8A07F65F34510A07792
:101490000020DEE730B50446A1F120000D460A2801
:1014A0004AD2DFE800F005070C1C2328353A3F44F8
:1014B000FFDF42E0207820283FD1FFDF3DE0A14858
:1014C0000178032939D08078132836D02078242851
:1014D00033D0252831D023282FD0FFDF2DE02078EE
:1014E00022282AD0232828D8FFDF26E020782228A7
:1014F00023D0FFDF21E0207822281ED024281CD012
:1015000026281AD0272818D0292816D0FFDF14E063
:101510002078252811D0FFDF0FE0207825280CD077
:10152000FFDF0AE02078252807D0FFDF05E02078DC
:10153000282802D0FFDF00E0FFDF257030BD30B586
:101540000B8840F67B444FF6FF72022801D093428D
:1015500004D09D1FA54224D2022802D04D88954276
:1015600003D04D88AD1FA5421BD24C88A34218D88A
:101570008B88B3F5FA7F14D2022802D0C888904233
:1015800005D0C88840F677450A38A84209D2C888ED
:10159000904208D0944206D05B1C6343B3EB800FAB
:1015A00001DB072030BD002030BD70B5044610F0CF
:1015B00003FA60BB207930B1082802D8217B0829C2
:1015C00005D9072070BD217B0029FAD0F6E718B1B4
:1015D000206810F0F1F9D0B9207B18B1A06810F0A4
:1015E000EBF9A0B9002507E0206850F8250010F0BD
:1015F000E3F960B96D1CEDB22079A842F4D800255A
:1016000009E0A06850F8250010F0D6F908B11020C4
:1016100070BD6D1CEDB2207BA842F2D8002070BDD9
:1016200010B5028943F6FD73111F994212D2418908
:1016300004290FD3B1F5804F0CD891420AD8017814
:10164000890705D5406818B1FFF7AFFF002800D122
:10165000002010BD072010BDF0B50024059D10B17D
:10166000A94203D851E009B90020F0BD0920F0BD1E
:10167000055D8DB107197E78112E3FD00FDC0A2E43
:101680003CD2DFE806F03B1624242A2A2C2C3333E4
:10169000025D72BB641CE4B28C42F9D3E4E71D2EF8
:1016A0002CDAA6F11206042E28D2DFE806F027274E
:1016B0001018022DDAD1BD781D70072D01D26D07EB
:1016C00001D40A20F0BD157845F0010515E0EE4380
:1016D000F60707E0012D07D010E00620F0BD2E0729
:1016E000A6F18056002EF5D06046F0BD1578AE0705
:1016F00001D50B20F0BD45F002051570055D641C99
:101700002C44E4B28C4202D9B0E74FF4485C8C42DE
:10171000AED3A9E710B504784CB1012243F20223FD
:10172000012C07D0022C0FD0032C17D112E000227D
:101730000A7015E00A7082790324B4EB921F0DD170
:101740000EE00000A80100200A708479B2EB941F1B
:1017500004D105E00A708279920901D0184610BDC3
:1017600050F8012F41F8012F80888880002010BD9B
:1017700008B538B1FEA06B4600680090487903EBCD
:10178000901000781070086842F8010F88889080E7
:1017900008BD30B50C46097895B0222902D2082040
:1017A00015B030BD28218DF80010ADF80200132AC5
:1017B00003D03B2A01D00720F2E78DF8042009A9C5
:1017C000684609F0F6FE050003D121212046FFF707
:1017D00061FE2846E4E700B595B023218DF800109E
:1017E000ADF802001088ADF804005088ADF806008E
:1017F000D088ADF80A009088ADF808000020ADF858
:101800000C00ADF80E0009A9684609F0D2FE15B02B
:1018100000BD70B50E46050003D00021092010F070
:1018200088F8D44C0120022EE0701CD0032E00D08A
:10183000FFDF0621201D0FF071FD607A20F0C0004F
:1018400084F80900FFF7D1FD608A00280AD0002D36
:1018500008D083000122002109200FF0CDFF0928C4
:1018600000D0FFDF70BD0321E01D0FF057FD607A4F
:1018700020F0C00040F040006072E01C02F03BFC31
:10188000E0E72DE9FF410220BA4E8DF80400002761
:10189000F08AADF80600B84655E001A80CF037F81C
:1018A000050006D0F08AB0B3A6F81680ADF8068021
:1018B00047E0039C2078212843D0A07F01072BD547
:1018C00004F123000090A28EBDF80800214604F127
:1018D000360301F02BFD050003D011282AD0FFDFCD
:1018E00028E0A07F20F00800A077E07F810861F366
:1018F0000000C10861F34100E07794F8210000F096
:101900001F0084F820002078282824D1292120468F
:10191000FFF7C0FD1FE01CE0400712D5BDF808002E
:10192000214604F10E02FFF756FF050004D01128EE
:1019300000D0FFDF00250EE0A07F20F00400A0779C
:1019400009E07F1CFFB202200CF022F8401CB842D4
:10195000A3D8052D07D0BDF80600F082052D04D0D0
:10196000284604B076E5A6F816800020F9E72DE9B0
:10197000F047040000D1FFDF20787E4E20F00F00FA
:10198000801C20F0F0007030207060680178091F22
:1019900011290BD2DFE801F0F1090A4FF00A0CF02F
:1019A000F0360A0A0A0AF174F100FFDFBDE8F08799
:1019B00087883846FFF736FD050000D1FFDF6078E5
:1019C000212140F008006070307D40F00400307547
:1019D0002846FFF75FFD384606F089FD384603F0DC
:1019E00021FC384604F03BFC394602200FF0A1FFF1
:1019F000A87F20F01000A877FFF743FF0028D5D07C
:101A0000FFDFD3E785882846FFF70CFD00B9FFDF2D
:101A100060688078012800D0FFDF606881792846FF
:101A200006F0D8FE0028C1D0617841F0080161704D
:101A30006168C880BAE786883046FFF7F3FC050086
:101A400000D1FFDF6078314640F0080060706068C8
:101A5000C088288160680089688160684089A881A1
:101A600002200FF066FF0020A875A87F00F0030099
:101A700002289BD1FFF705FF002897D0FFDF95E7ED
:101A800080783C2803D0002502280AD000E00125F8
:101A9000002720B13C2802D0022800D0FFDF17B178
:101AA0007EE00127F5E7607840F008006070307D47
:101AB00040F008003075EDBB606802218788384629
:101AC0000BF0B2FF0546032138460BF0ADFF82460E
:101AD000052138460BF0A8FF8146042138460BF05B
:101AE000A3FF804605B9FFDFBAF1000F00D1FFDF89
:101AF000B9F1000F00D1FFDFB8F1000F00D1FFDF17
:101B000022212846FFF7C6FC60688079012837D07B
:101B10004FF00208A87F68F30100A8776068C08AC8
:101B200028816068008B68816068408BA88160684C
:101B3000C07900E027E0E87560688168A961808964
:101B4000A8836068807B6870606850F80F1FC5F8D4
:101B500002108088E880A87F00F00301384606F074
:101B6000B8FCB8F1010F0ED0B8F1020F18D005E0A3
:101B70000302FF01A80100201FE023E0FFDF15E7BB
:101B80004FF00108C6E73078032800D0FFDF0021BE
:101B900008460FF0CEFEBDE8F047012000F087BFF9
:101BA000B078132800D0FFDF002107200FF0C1FE1E
:101BB000BDE8F0471120FFF7CDBB2046BDE8F04758
:101BC00001F08CBE607840F008006070EEE62DE910
:101BD000F0470546007800270009DFF894A69146F3
:101BE0000C463E46012871D0BC464FF6FF710228D4
:101BF0006DD0072809D00A286AD0FFDFA9F8006055
:101C00000CB1278066800020D0E6686804F10802E5
:101C100003780D2B40D006DC042B7DD0072B44D05D
:101C20000A2B7AD106E0122B46D0132B51D0142B5D
:101C3000F7D1C0E011270926002C6FD0B0F804803E
:101C4000A4F804806868807920729AF814104046DD
:101C500021F004018AF8141004210BF000FF052183
:101C600040460BF0FCFE002140460BF0F8FE01213F
:101C700040460BF0F4FE032140460BF0F0FE02213B
:101C800040460BF0ECFE062140460BF0E8FE072133
:101C900040460BF0E4FEB1E701270926002CCCD02A
:101CA0008088A080686880790EE0122710268088DE
:101CB000214600F01EFFA1E71C270926002CBCD0FE
:101CC0004088A08068680079207297E78AE0B3E0D6
:101CD00082E081783C2938D010272026002CACD017
:101CE0008088A0806868C08A60836868C08A208312
:101CF0006868008BA0836868408BE0836868417FD8
:101D0000E07D61F30000E0756968497F490861F38F
:101D10004700E075696802E022E05CE08BE0C8798A
:101D20000831FFF725FD696804F10F0201F10F008A
:101D30008B7B01461846FFF71BFD6868807910B160
:101D40000120A07507E00220FBE71B270926002CD5
:101D500071D084F808C09AF8141021F008018CE0C2
:101D60001D273026002C66D0A1806868411D0079AF
:101D7000FFF7FEFC686890F82B00E0736868C07895
:101D80000428207C14D020F00100207469681F22F0
:101D9000C97861F3420020746968C97A61F3C700A9
:101DA0002074696804F111000C3119F043F825E73B
:101DB00040F00100E9E720271026E4B3A18068681D
:101DC00004F10902407A20726968CB1C88781946B0
:101DD000FFF7CEFC12E74A4621462846BDE8F04709
:101DE00001F001BF287E012803D0022813D0FFDFB5
:101DF00004E71F271026F4B16888A080688B208133
:101E0000A88B6081E88BA081288CE0819AF814105F
:101E100021F0200131E012271026688800F069FEC9
:101E20004CB1687800F007000328C0D19AF814106C
:101E300021F0020121E027E0287E062822D2DFE8F7
:101E400000F0040F0F030303C5E71B270926DCB1CD
:101E5000A18084F808C09AF8141021F001010CE068
:101E60001B27092684B1A180287E012808D00320E1
:101E700020729AF8141021F010018AF81410BDE6AF
:101E80000220F5E7FFDFB9E6A9F80060BBE610B570
:101E9000F74894B08078132802D0082014B010BD01
:101EA00022208DF8000009A9684609F082FB04464B
:101EB000002107200FF03DFD2046EFE700B5EC487C
:101EC00095B08078122801D00820A0E41E208DF85B
:101ED000000000208DF802008DF8030009A9684673
:101EE00009F067FB0028F0D1002107200FF021FD49
:101EF0001120FFF72FFA002089E400B5DC4895B0E7
:101F00000078022803D0032801D008207FE41B209A
:101F10008DF8000000208DF8020009A9684609F03C
:101F200048FB0028F2D1002108460FF002FD0120F5
:101F300000F0BDFD00206AE42DE9F0410027CC4C03
:101F40000A287CD2DFE800F0057B1C7B7B7B7B448E
:101F50003B6AFFF7D2FF002831D105F01FFC0028B3
:101F60002DD0017821F00F01891C21F0F0012031E2
:101F70000170077605F0F0FB207D40F001001DE0C8
:101F80008EB23046FFF74EFA050000D1FFDF287809
:101F9000212814D005F002FC98B1017821F00F013E
:101FA000891C21F0F0011031017002210176468078
:101FB000AF7505F0D1FB207D40F002002075BDE833
:101FC000F08129463046BDE8F0411322FFF7E1BB1E
:101FD000A578122D03D0132D04D0FFDFEFE7FFF714
:101FE0006DFF01E0FFF753FF0028E8D105F0D6FBB5
:101FF0000028E4D0017821F00F01891C21F0F001C4
:1020000020310170122D07D00221017605F0A4FBCA
:10201000207D40F01000D1E70121F6E7607A012130
:10202000B1EB901F02D1022104E008E0800900D04A
:10203000FFDF0321BDE8F0410020FFF7EABBFFDF2F
:10204000BDE72DE9F04114460D00074600D1FFDF42
:102050002878012803D0022821D0FFDFAFE73846D7
:10206000FFF7E0F9060000D1FFDF0220B07520780D
:1020700020F00F00801C20F0F000103020706078FD
:1020800040F0080060702868A0616868E0612889F5
:1020900020847748017D41F0200101758FE73846A3
:1020A000FFF7C0F9060000D1FFDF69884FF6FF7027
:1020B000814209D1AA88824206D131463846BDE81C
:1020C000F0411322FFF765BB814201D1A88898B186
:1020D000207820F00F00801C20F0F00010302070DD
:1020E000607840F0080060702868A0616868E0616E
:1020F00028892084002006E0782300223946022027
:102100000FF07AFB0120B07559E730B5054695B060
:102110000C4608460FF050FC78BB00200121203D02
:10212000062D5FD2DFE805F0032540444A57002121
:1021300008200FF0D7FB10B1112015B030BD2420BE
:102140008DF80000D4F80200CDF80200A0798DF8D7
:10215000060009A9684609F02CFA05002CD10823CD
:102160000022114618460FF047FB082824D0FFDF55
:1021700022E060680FF062FC08B11020DDE73C202F
:102180008DF800002088ADF802006088ADF80400EA
:1021900009A9684609F00DFA05000DD1606858B12B
:1021A000BDF82810018007E0206801F0E2FF02E09E
:1021B000204600F0B1FC05462846BEE73D220BE074
:1021C0008DF8021002E000BF8DF8020009A96846F0
:1021D00009F0EFF9EFE734228DF800202278D207DA
:1021E000F2D0EDE70720A8E730B5054695B00C46DC
:1021F00008460FF005FC70BB203D052D35D2DFE809
:1022000005F00323232523002088FFF70BF920B1D5
:102210000078222804D208208FE743F202008CE7DE
:1022200025208DF800002088ADF8020009A9684635
:1022300009F0BFF9002880D1DDF82A10C4F8021097
:102240009DF82E10A17178E7062076E7206838B156
:102250000FF0F4FB08B110206FE7206801F07DFF5C
:102260000348408AA080002067E7072065E7000058
:10227000A8010020FE487047FD4810B518210A3813
:1022800018F04FFE012000F012FC1120FFF762F859
:10229000F74C00200A3C211D60744FF4617060828D
:1022A000E01C05F043FBD4F80300C4F80A00B4F8BE
:1022B0000700E081607A2074FFF797F800B1FFDF34
:1022C00000F09CFCBDE8104001F0C2BA10B50C460D
:1022D0003E21204618F025FEA07F20F00300A077C5
:1022E000202020700020A07584F8220010BD7047C7
:1022F0002DE9FC4105460E4608460FF05DFB10B186
:102300001020BDE8FC81DA4C0A3C15B1012D38D112
:102310002CE0D4F803000090B4F80700ADF80400F6
:102320008046677A8DF80670E11C3046FFF7F2F9B7
:102330000028E6D1FFF759F830B10099C4F803102E
:10234000A4F807806772DCE7307808B1012808D16B
:10235000D4F80300C4F80A00B4F80700E081607AFA
:102360002074002109200FF0E4FA0FE0317841B128
:10237000012906D0022906D0032904D043F2022005
:10238000BFE70720BDE70120FFF743FA657400208F
:10239000B7E710B504460FF033FB08B1102010BDAD
:1023A000B34922460A39C878091DFFF7E1F9002030
:1023B00010BD2DE9F0419AB0054600208DF85C0073
:1023C0008DF858008DF828008DF860001E461446E0
:1023D000884628460FF03BFB18B920460FF037FB24
:1023E00010B110201AB0EAE555EA040018D01F27F2
:1023F0000AAB17AA414628460097FFF72DF9002897
:10240000F0D118AB16AA314620460097FFF724F901
:102410000028E7D19DF85800C00703D00A20E1E763
:102420000720DFE701AF7DB11A208DF804008DF899
:10243000068042462946F81C18F0FCFC0BA901A8AE
:1024400009F0B7F80028CDD17CB120208DF8040028
:102450008DF8066032462146F81C18F0EBFC0BA9FB
:1024600001A809F0A6F80028BCD181499DF82800F0
:102470000A3948700020B5E770B506460A200C46B8
:10248000087015461146204609F093F830B93821F6
:1024900021702046294609F08CF820B1082801D186
:1024A00043F2032070BD2A462146304600F05BFB14
:1024B0000446082800D1FFDF204670BD2DE9F04119
:1024C0006CA196B00446D1E90001CDE914010027C2
:1024D00020460FF071FA30B92078012806D16068E3
:1024E0000FF06AFA10B1102016B068E5604D0A3D91
:1024F0002878012801D00820F6E707200BF050FAD1
:1025000018B9207848B1012807D0FEF73DFF30B157
:10251000287D10F00C0F09D103E01220E4E713200E
:10252000E2E7C10702D1A846800701D51120DBE709
:10253000208A43F6E172A0F120019142217807D36D
:10254000012942D1002840D1618A00293DD10FE004
:10255000022901D0032901D1A02836D3012907D0AF
:1025600098F80110C90703D0618A71B3B4292CD837
:10257000217831B1012908D0022904D0032924D1BE
:1025800015E0002516E0022514E008B9608A60B164
:1025900004256068007868B101280AD0022808D0B4
:1025A000032806D043F202209EE70125F1E7032528
:1025B00000E00127207A30B1012807D0022807D097
:1025C00003286AD106E0002605E066E0012602E065
:1025D000022600E003260DB1022D13D196B1E0686A
:1025E00018B1FEF7E2FF002886D198F801008007B5
:1025F00002D043F2012077E7022D03D1022E4CD006
:10260000032E4AD018208DF82C00208AADF82E0019
:10261000208AADF830008DF8325098F80310002071
:102620004FF0010811B1012968D102E08DF83300A3
:1026300001E08DF833808DF834702178012925D0A0
:10264000CDF83500ADF839008DF83C60207DC0F341
:102650004002014662F35F01C0F3800041EA80005E
:1026600014A9085C8DF83B00B8B169460BA805E0D9
:10267000B2010020070605040302010008F099FFDB
:10268000002891D15DB1022D09D011E0606850F8A9
:10269000011FCDF835108088D4E7072024E73EB12C
:1026A000E06828B16A460BA9FFF7E6FE0028A2D130
:1026B0001B208DF82C008DF82E8069460BA808F0A1
:1026C00078FF002897D19DF801001B2816D1052D11
:1026D00009D2DFE805F0030305050300032000E04D
:1026E000022000F0E4F9012D0AD0608A40B10022F6
:1026F0008300114610460FF07FF808B10320F3E67F
:102700000020F1E62DE9FC4107460D460326084668
:102710000FF09DF9002863D13846FEF783FE0400D0
:1027200004D02078222804D20820EAE543F20200EF
:10273000E7E5A07F00F0030C2DB129466046FEF7C7
:10274000FEFE0600F1D1F948BCF1010F05D0BCF145
:10275000020F17D0FFDF3046D3E5A27D2946012ABC
:1027600002D0007D800701D51120CAE529B968464D
:1027700000F0FDFA0028D8D16946384605F0A7FFD9
:102780000646E8E7A17D022914D1007D800611D418
:1027900025B1A07F40070BD4002100E0012138467D
:1027A00005F0E0FF0600D6D1A075002DD3D002E0E1
:1027B0001126D0E7A5B12A4621463846FFF70BF887
:1027C00006461128C7D1A07F4107C4D4296844F820
:1027D0000E1F6968616040F0040020740026BAE7AB
:1027E00010208EE570B50C460546FEF71BFE010075
:1027F00005D022462846BDE87040FEF7CABF43F226
:10280000020070BD00B595B031218DF800108DF833
:10281000020009A9684608F0CCFE15B000BD0123EE
:10282000FEF703BE00231A461946FEF7FEBD70B53B
:1028300094B004460FF0C0F810B1102014B070BD71
:102840002046FEF7EDFE0028F8D1B84DA8781128F3
:1028500001D00820F2E7FEF797FD20B1287DC006E1
:1028600003D51120EAE71320E8E71D208DF80000CA
:10287000207800F001008DF802002089ADF80400F6
:102880006089ADF806002078C0F340008DF809009B
:10289000E8780025012618B1012804D00320CDE7EF
:1028A0008DF8085001E08DF8086009A9684608F025
:1028B00080FE0028C2D12078800707D5606828B143
:1028C00009AA6946FFF7D8FD0028B7D11E208DF868
:1028D00000008DF802608DF8035009A9684608F0E1
:1028E00068FE0028AAD1A08900F0F5F80400A5D15F
:1028F0001220FEF72FFD2046A0E7F0B595B0154653
:102900000C4607460FF0A3F838B920460FF054F8EC
:1029100018B928460FF050F810B1102015B0F0BDCE
:10292000824E307D10F0180F01D1400701D51120E3
:10293000F4E72046FEF774FE0028EFD12078C0F3BC
:102940004001394302D0800702D50FB10720E5E7E7
:1029500029460220FEF7F3FD0028DFD1B0781128C8
:1029600003D0122801D00820D8E706200BF018F871
:1029700018B1B078122802D005E01220CEE7FFF798
:102980009DFA0028CAD1FEF7FFFC022801D21320CD
:10299000C4E72078800707D5606828B109AA69468E
:1029A000FFF76AFD0028B9D121208DF800002089A9
:1029B000ADF802006089ADF8040020784FF0010105
:1029C000C0F340008DF80600207882074FF0000029
:1029D00015D43A7842B1012A09D0022A07D0032A35
:1029E00005D043F2022099E78DF8070001E08DF849
:1029F000071057F8012F0292BA88ADF80C20F27830
:102A00001AB1012A04D0032088E78DF80E0001E0F6
:102A10008DF80E102988ADF810106988ADF81210E5
:102A2000A988ADF81410E988ADF81800ADF81610B3
:102A3000ADF81A0009A9684608F0BBFD002886D148
:102A4000A08900F048F804008ED11320FEF782FC24
:102A5000204663E730B5054695B00C4608460EF0B3
:102A6000CFFF10B1102015B030BD2846FEF7DAFCBC
:102A700038B10178222902D3807F800604D408204F
:102A8000F1E743F20200EEE713208DF80000ADF805
:102A9000025009A9684608F08CFD0028E3D19DF991
:102AA0002A107F2901D02170DDE70520DBE730B552
:102AB0001E4D040008D0012C04D0022C06D0032C9B
:102AC00004D0FFDF2C7030BDFFDFFBE72878012842
:102AD000F8D0FFDFF6E710B548B1830000221146B9
:102AE00007200EF089FE072801D0032010BD00202A
:102AF00010BD70B50C0006460DD0FEF793FC050026
:102B000000D1FFDFA680288920812889608168891B
:102B1000A081A889E08170BD10B50446006840B16D
:102B20000EF095FF20B1102010BD0000A80100207C
:102B3000206801F005FBA0882F4C6082607C012892
:102B40000FD1002109200EF0CDFE00B10120617AE5
:102B50000122B2EB911F01D1022100E00321FEF717
:102B600058FE0020E0E72DE9F047002592460C468C
:102B70000646A8464FF001090B2721E0306850F8BF
:102B80002500007820B1012805D00720BDE8F08796
:102B900084F8028001E084F80290306850F8250043
:102BA00050F8011FC4F803108088A4F807002770AC
:102BB0005146204608F0FDFC0028E7D16D1CEDB21F
:102BC0003079A842DAD8002539270FE0B068102202
:102BD00050F82510A01C18F02DF9277051462046FA
:102BE00008F0E7FC0028D1D16D1CEDB2307BA84283
:102BF000ECD80020CAE70000A8010020E848002126
:102C00000160818070472DE9FF41804692B01C46EB
:102C10000E4618460EF0D0FE18B1102016B0BDE8D2
:102C2000F08121460120FEF78AFC0028F6D101251B
:102C30008DF842504FF4C050ADF84000002210A96A
:102C4000284603F0AAFD0028E8D18DF842504FF441
:102C50002850ADF8400000271C216846099718F05D
:102C600082F99DF82400ADF8346020F00F00401C7C
:102C700020F0F00010308DF824009DF82500ADF80C
:102C8000367020F0FF008DF825009DF8260007AA79
:102C900020F00600801C40F001008DF826009DF811
:102CA00000000BA940F002008DF800001F20ADF8D5
:102CB000380009A80C9010A80B90CDF83C8068460D
:102CC00003F06EFB0028A9D1B54EBDF81C0007AA81
:102CD00030808DF8425042F60120ADF840009DF85A
:102CE00026000BA920F00600801C20F001008DF8C2
:102CF00026000220ADF83400ADF8380014A80F907B
:102D0000684603F04DFB002888D1BDF81C00708098
:102D1000311D204600F0ECF880E73EB5044608205F
:102D2000ADF8000020460EF047FE08B110203EBD71
:102D300021460120FEF703FC0028F8D12088ADF8D9
:102D400004006088ADF80600A088ADF80800E088AF
:102D5000ADF80A00924801AB6A468088002103F072
:102D600009FFBDF800100829E1D003203EBD1FB5C2
:102D70000446002002900820ADF80800CDF80CD0E1
:102D800020460EF019FE10B1102004B010BD84488A
:102D900002AA81884FF6FF7004F07BF80028F4D176
:102DA000BDF80810082901D00320EEE7BDF8001097
:102DB0002180BDF802106180BDF80410A180BDF82B
:102DC0000610E180E1E701B582B00220ADF8000015
:102DD000734802AB6A464088002103F0CBFEBDF881
:102DE0000010022900D003200EBD1CB50021009167
:102DF0000221ADF8001001900EF002FE08B1102083
:102E00001CBD67486A4641884FF6FF7004F041F8E0
:102E1000BDF800100229F3D003201CBDFEB5074603
:102E200014460E4608460EF0C7FD08B11020FEBD40
:102E30001F2C01D90C20FEBD38460EF0BDFD584DAB
:102E400018BB288801A903F021F80028F3D13878AD
:102E50008DF80500288801A903F06DFE0028EAD14D
:102E600000909DF800009DF8051040F002008DF8DC
:102E70000000090703D040F008008DF80000288802
:102E8000694603F0FBFD0028D5D1ADF8084028883D
:102E9000334602AA002103F06DFEBDF80810A142DE
:102EA000C9D00320FEBD7CB50546002000900190EE
:102EB0000888ADF800000C46284601950EF0BEFDCE
:102EC00018B920460EF09CFD08B110207CBD15B14C
:102ED000BDF8000050B132486A4601884FF6FF70D5
:102EE00003F0D7FFBDF8001021807CBD0C207CBD15
:102EF00030B593B0044600200D460090142101A87F
:102F000018F031F81C2108A818F02DF89DF80000E1
:102F1000CDF808D020F00F00401C20F0F000103059
:102F20008DF800009DF8010006AA20F0FF008DF842
:102F300001009DF8200001A940F002008DF820005A
:102F400001208DF8460042F60420ADF8440011A897
:102F500001902088ADF83C006088ADF83E00A08864
:102F6000ADF84000E088ADF842009DF8020020F086
:102F70000600801C20F001008DF802000820ADF84A
:102F80000C00ADF810000FA8059008A803F008FA8F
:102F9000002803D1BDF818002880002013B030BDF0
:102FA00010000020094810B504680A490848086064
:102FB0000DF08AFB0848046010BD08490020086035
:102FC0004FF0E0210220C1F8800270471005024056
:102FD000010000011805024014050240FC1F0040DA
:102FE00070B50C46054606F0BFFE21462846BDE8F2
:102FF000704007F09CBE704770477047704770473D
:1030000010FFFFFFDBE5B15100C001008100FFFFB1
:1030100010B504460EF0D0FC08B1102010BD207889
:10302000C0F30210042807D86078072804D3A178D9
:10303000102901D8814201D2072010BDE078410754
:1030400006D421794A0703D4000701D4080701D523
:10305000062010BD002010BD10B513785C08C37F9A
:1030600064F30003C3771478A40864F34103C377BF
:103070001078C309887863F34100887013781C09BD
:103080004B7864F347134B701378DB0863F300004D
:1030900088705078487110BD10B5C4780B7864F30F
:1030A00000030B70C478640864F341030B70C478A8
:1030B000A40864F382030B70C478E40864F3C303C8
:1030C0000B700379117863F30001117003795B08C9
:1030D00063F34101117003799B0863F3820111705E
:1030E0000079C00860F3C301117010BD70B51446BB
:1030F0000D46064604F052FB80B10178142221F0FF
:103100000F01891C21F0F001A03100F8181B2146A5
:1031100017F0D5FEBDE8704004F01EBB29463046CE
:10312000BDE870401322FEF734BB70B514460E465E
:10313000054604F033FB70B1017821F00F01891CC2
:1031400021F0F00120310170458021688161BDE8E6
:10315000704004F001BB31462846BDE870401322A0
:10316000FEF717BB10B5FE4C94F8300000280CD1C8
:1031700004F120014FF6FF72A1F110000CF0B9F834
:1031800000B1FFDF012084F8300010BD2DE9F047C9
:10319000064608A8894690E830041F469046142148
:1031A000284617F0E0FE0021CAF80010B8F1000F21
:1031B00003D0B9F1000F03D114E03878C00711D063
:1031C00020680EF01DFCE8BBB8F1000F07D12068A5
:1031D000123028602068143068602068A860216878
:1031E000CAF800103878800727D560680EF026FCF2
:1031F00040BBB9F1000F2CD0FFF73CF80168C6F8CE
:10320000B4118188A6F8B811807986F8BA01FFF761
:10321000A9FFDFF84C8308F12008C5F80C8062682C
:103220005AB196F8B40106F2B5111032FEF7A0FAC1
:1032300010224146606817F0FDFD3878400712D52E
:10324000A06800E002E00EF0DBFB50B11020BDE80A
:10325000F08760680028F9D0E8606068C6F8B001BF
:10326000EBE7A06828610020F1E730B50546087853
:103270000C4620F00F00401C20F0F00110312170AE
:103280000020607095F8220030B104280FD0052886
:1032900011D0062814D0FFDF20780121B1EB101FD8
:1032A00004D295F8200000F01F00607030BD21F0BE
:1032B000F000203002E021F0F00030302070EBE729
:1032C00021F0F0004030F9E710B510B190F8A940B6
:1032D00044B1A34890F8354000205CB1086010600C
:1032E000186010BD00F1A8040C6000F1D001F830A6
:1032F0001160F5E79A4C34340C60F0E700B58BB000
:103300000823CDE902128DF8013001919449002380
:1033100064310591099301468DF8103068460BF031
:10332000C0FF002800D0FFDF0BB000BD30B595B066
:103330000C462C2518998DF80050ADF80200B3B159
:103340001868019058680290ADF80C2010220DF119
:103350000E0017F06FFD09A9684608F02AF9002849
:1033600003D1A17F41F01001A17715B030BD00203D
:103370000190E8E72DE9F0470646008A8AB080B25E
:103380000D468146FEF74EF80446754F3078283FCB
:10339000DFF8CC814FF0000A122873D2DFE800F08A
:1033A00072E9350936777E98A8F3E7E6E5E4DF5B56
:1033B000DFDFA07F00F00300012806D0002148468F
:1033C0000AF03BFB050003D101E00121F7E7FFDF35
:1033D00098F85C10090602D5D8F860000BE00321CC
:1033E00005F121000DF09AFFD5F821005D49B0FBF1
:1033F000F1F201FB1200C5F8210070686866B06840
:10340000A8662078252800D0FFDFECE0A07F00F040
:103410000300012806D0002148460AF00EFB0600F2
:1034200003D101E00121F7E7FFDF7078810702D5C2
:103430002178252904D040F0010070700AB006E719
:103440000220287096F82000287106F121003136FC
:10345000C5E90206F2E7A07F00F00300012806D0CC
:10346000002148460AF0E9FA040003D101E00121F5
:10347000F7E7FFDF6078C10605D5142028704134D6
:103480006C60DBE7E2E140F008006070D6E73448AA
:10349000082128380DF042FF032016E02A208DF87D
:1034A000000010220DF10200716817F0C3FC102219
:1034B0000DF11200B16817F0BDFC294968462C399E
:1034C00008F077F800B1FFDF042028706F60B5E7DF
:1034D000E07FC00600D5FFDFB0680090B388062209
:1034E0000321484605F063F80028A7D0FFDFA5E7D1
:1034F00004B9FFDF716821B1102204F1230017F035
:1035000099FC28212046FDF7C5FFA07F00F00300AD
:1035100002280ED104F12300002300901A46214610
:103520004846FFF703FF112807D029212046FDF761
:10353000B1FF307A84F8200080E7A07F000700D533
:10354000FFDF14F81E0F40F008002070A4F816A04A
:10355000C4F818A0C4F81CA0617808460AE034E05A
:103560005C02002040420F006CE19AE090E062E0D3
:1035700009E03FE061F38200410861F3C30060703D
:10358000307AE0705AE7A07F00F00300012806D0EF
:10359000002148460AF051FA040003D101E001215C
:1035A000F7E7FFDF022104F175000DF0B7FE1120EF
:1035B000287004F5DA706860B4F875002882FD4858
:1035C0006C346C61C5E9028038E7A07F00F003002D
:1035D000012805D0002148460AF02FFA18B901E069
:1035E0000121F8E7FFDF0AB0324621464846BDE830
:1035F000F0477BE504B9FFDF207821289CD930799A
:10360000012802D002280AD103E0E07F40F0100038
:10361000E07798F85C1041F0010188F85C103246C0
:1036200021464846FFF762FD0AB02046BDE8F04754
:103630002321FDF72FBF327901230321484604F0EF
:10364000B7FD98B1122005F8040B327925F8042B48
:10365000281DA91E0095CDE901100023032148462D
:1036600004F023FE00288DD0FFDFE7E6A07F00F006
:103670000300012806D0002148460AF0DEF90400C4
:1036800003D101E00121F7E7FFDF30792070D5E6B3
:103690000321484605F02DF9002895D11320287004
:1036A000CCE6A07F00F00300012806D000214846A8
:1036B0000AF0C3F9050003D101E00121F7E7FFDFBC
:1036C00095F8740000F00300012878D1A07F00F085
:1036D0000307E07FC0F3400616B1012F04D02BE0B2
:1036E00095F89000C0072AD0D5F8AC0118B395F82A
:1036F0007320017C62F387010174E27FD5F8AC018D
:1037000062F341010174D5F8AC0166F30001017464
:10371000AEB1D5F8AC01102204F12301783517F0D1
:1037200089FB287E40F001002876287820F00100EF
:1037300005F8780900E016B1022F04D02CE095F8C6
:103740007800C00726D0D5F8A80118B395F87320E3
:10375000017C62F387010174E27FD5F8A80162F36E
:1037600041010174D5F8A80166F3000101748EB11E
:10377000D5F8A801102204F12301783517F05AFB7F
:10378000287840F0010005F8180B287820F0010097
:1037900005F89009022F51D05FF0000000EB4000C7
:1037A00005EBC00090F87800800708D5D5F8B02167
:1037B00095F86C0005F16D011032FDF7D9FF052079
:1037C00060F3070815F8740F00F0030060F30F288A
:1037D000287960F31748287F60F31F687548AC3874
:1037E000027822F00F02921C22F0F00220320270C6
:1037F000427822F00702D21C4270A0F80290C0F872
:10380000188004F033F92078252805D0212807D026
:10381000FFDF2078222803D922212046FDF73AFE37
:10382000A07F00F0030001280AD0002148460AF0DA
:1038300016F900283FF40EAEFFDFFFE50120ADE7EB
:103840000121F3E7716881F801A0F7E5FFDFF5E5F5
:1038500070B5584C0025103C14F85C0F20F0800027
:10386000207065600BF0E7FC5249A1F1100004F0F4
:103870008FF804F82C5C072060724E487C30206181
:103880005030A0611030E06170BD70B50D46FDF79D
:10389000C9FD040000D1FFDF4FF4DE71284617F0A8
:1038A00062FB44485430686104F123002861A07F22
:1038B00000F00300012809D05FF0020105F59070C7
:1038C0000BF0BAFC002800D0FFDF70BD0121F5E746
:1038D0000A46014602F590700BF0CCBC70B5054667
:1038E00040689AB0017808290DD00B2903D00C2923
:1038F00036D101218171686886883046FDF792FDD6
:10390000040035D133E046883046FDF78BFD0400D6
:1039100000D1FFDF2078212822D0282822D1686812
:1039200002210C3001F09CF9E0B168680821001D0B
:1039300001F096F9B0B12D208DF80000ADF80260CD
:10394000102204F1230101A817F074FA09A96846AE
:1039500007F02FFE00B1FFDF29212046FDF79AFD79
:103960001AB070BD687840F008006870F8E7FFDFB3
:10397000A07F00F00301022902D120F01000A077FF
:10398000207821280AD06868817909B1807898B1B7
:10399000A07F00F0030002285BD0FFDFA07F00F0D3
:1039A00003000228DCD1FDF76CFF0028D8D0FFDF30
:1039B000D6E700006C020020687840F008006870CC
:1039C000E07FC10720D0800701D5062000E0052058
:1039D00084F822002078292818D02428DED1314606
:1039E00006200DF0A6FF22212046FDF753FDA07F03
:1039F00000F0030001282AD0002130460AF02FF8F9
:103A00000028CBD0FFDFC9E70420E1E7A07F00F06A
:103A10000300012806D0002130460AF00EF8050008
:103A200003D101E00121F7E7FFDF25212046FDF763
:103A300031FD10208DF8500014A905F590700BF0A1
:103A400010FC0228AAD00028A8D0FFDFA6E7012199
:103A5000D3E7687840F0080068709FE72DE9F047E9
:103A60008CB01D46904689460646DDF850A0FDF70D
:103A7000D9FC040052D0207822284FD323284DD0DF
:103A8000E07FC0064AD4A07F00F00300012806D0E2
:103A90000021304609F0D1FF070002D00BE00121E0
:103AA000F7E7A07F00F00300012804D10121304690
:103AB00009F0BAFF074601AB02AA03A93846FFF78F
:103AC00003FC039800B9FFDF4FB1039807F5907727
:103AD00087612078222806D0242804D007E00399A3
:103AE0000020886103E025212046FDF7D3FC0398E0
:103AF0000C2141704662A0F80480C0F80890A0F83C
:103B000006A0C560029901610199416104A90BF009
:103B1000C8FB022802D0002800D0FFDF0CB0BDE8AF
:103B2000F08730B589B00546FDF77CFC0178222985
:103B300033D9807F00F00300012806D000212846F9
:103B400009F07BFF040003D101E00121F7E7FFDF6B
:103B5000227801230321284604F02AFB00281CD0E8
:103B600012208DF80C00227806A8811F05ABCDE944
:103B700000310290ADF8102000230321284604F004
:103B800094FB00B1FFDF03A904F590700BF069FB13
:103B9000022802D0002800D0FFDF09B030BD10B5E8
:103BA00086B00446FDF73EFC0178222919D9807FB2
:103BB00000F00300012806D00021204609F03DFF57
:103BC000040003D101E00121F7E7FFDF13208DF8A6
:103BD0000000694604F590700BF043FB002800D00C
:103BE000FFDF06B010BD2DE9F05F05460C4600274B
:103BF0000078904601093E46BB4604F1080A0229B6
:103C00007ED0072902D00A2909D141E068680178ED
:103C1000082905D00B292BD00C2929D0FFDFC5E1BD
:103C200014271C26002C6CD04088A080FDF7FAFBDE
:103C30005FEA000900D1FFDF99F81700524609F149
:103C40001801FDF795FD68688089208269684868D9
:103C5000C4F812008868C4F81600A07E20F00600A0
:103C600040F00100A07699F81E0040F040014DE0C0
:103C70001A270A26002CD6D08088A080FDF7D2FB18
:103C8000050000D1FFDF51462846FFF7EEFA8DE12F
:103C90000CB1288DA080287E0E287CD006DC01285F
:103CA0007AD0022808D0032804D135E0102874D037
:103CB000112873D0FFDF79E11E270926002CB2D02E
:103CC000A088FDF7AFFB5FEA000900D1FFDF287F86
:103CD00000F003000128207A1BD020F001002072A0
:103CE000297F890861F341002072297FC90861F3A7
:103CF00082002072297F090961F3C300207201E06C
:103D000049E116E199F81E0040F0800189F81E1083
:103D10004CE140F00100E2E713270D26002CAAD069
:103D2000A088FDF77FFB8146807F00F0030001281B
:103D300006D00021A08809F080FE050003D101E033
:103D40000121F7E7FFDF99F81E0000F00302012AC6
:103D500059D0A86E817801F003010129217A54D04D
:103D600021F00101217283789B0863F341012172E4
:103D70008378DB0863F38201217283781B0963F384
:103D8000C3012172037863F306112172437863F350
:103D9000C711217203E060E0A6E08EE09EE084F8A7
:103DA00009B0C178A172012A32D04279E17A62F376
:103DB0000001E1724279520862F34101E1724279F5
:103DC000920862F38201E1724279D20862F3C30180
:103DD000E1720279217B62F30001217302795208BA
:103DE00062F3410121730279920862F38201217327
:103DF0000079C00860F3C301217399F800002328FB
:103E00005AD9262168E0686EA4E741F00101A9E7CC
:103E10000279E17A62F30001E1720279520862F3F9
:103E20004101E1720279920862F38201E172027942
:103E3000D20862F3C301E1724279217B62F300018F
:103E400021734279520862F3410121734279920849
:103E500062F3820121734079CBE718271026002CEA
:103E600067D0A088FDF7DEFA8246807F00F003006D
:103E7000012807D00021A08809F0DFFD5FEA0009D2
:103E800003D101E00121F6E7FFDFE869A06099F8BE
:103E9000010040F0040189F8011099F80200800740
:103EA00008D5012020739AF8000023287ED9272105
:103EB000504663E084F80CB078E015270F26C4B3B1
:103EC000A088FDF7AFFA814606225146E86907F05F
:103ED000D6FB0120A073AEE048464FE01627092626
:103EE0003CB3287F207261E0287FFE4902280CD075
:103EF00019270E26ECB101280DD003281AD004286A
:103F00001BD0052819D0FFDF23E01B270926BCB3EF
:103F10000120207205E001202072607A20F0030069
:103F2000607211F85C0F4208520062F306000870DC
:103F30000FE02BE00220207207E0697F052801F0E6
:103F40000F0141F0800121721BD0607A20F0030044
:103F50006072A088FDF766FA05460078212825D012
:103F6000232800D0FFDFA87F00F00300012810D035
:103F70000021A08809F073FD22212846FDF78AFA66
:103F800014E0607A20F00300401CE1E7A8F800602C
:103F900011E00121EDE70CB16888A080287E03289C
:103FA0002BD004280AD005284BD0FFDFA8F80060EA
:103FB0000CB1278066800020BDE8F09F15270F26F2
:103FC000002CE3D0A088FDF72DFA807F00F00300DD
:103FD000012806D00021A08809F02FFD050003D19B
:103FE00001E00121F7E7FFDFD5F821000622514665
:103FF00007F045FB84F80EB0D8E717270926002CF8
:10400000C4D0A088FDF70EFA8146807F00F003003F
:10401000012806D00021A08809F00FFD050003D17A
:1040200001E00121F7E7FFDFA878800701D5022032
:1040300000E00120207299F800002328B6D927213A
:104040004AE719270E26002CA0D0A088FDF7EAF930
:104050005FEA000900D1FFDFC4F808B0A4F80CB093
:1040600084F808B0A07A40F00300A07299F81F10FD
:1040700061F38200A07299F81F1001EA510161F307
:10408000C300A072687E00F0030001288ED1607A20
:1040900040F00400607299F81E0000F0030001284F
:1040A00014D0E97E607B61F300006073AA7E217BFF
:1040B00062F300012173EA7E520862F341006073EB
:1040C000A87E400860F3410121736FE7E87E217B01
:1040D00060F300012173AA7E607B62F300006073CD
:1040E000EA7E520862F341012173A97E490861F317
:1040F000410060735AE730B504468079012591B0DC
:10410000B5EB901F00D0FFDFFFF72CF84FF6FF70E4
:10411000099074488DF8015020300190201D0290C4
:10412000601C0B900AA968460BF0BBF800B1FFDFDA
:104130000B980188A4F801108078E07011B030BDB0
:1041400010B5684C30B10146102204F1200016F081
:1041500071FE012084F8300010BD10B50446FFF751
:1041600001F8604920461022BDE81040203116F0C9
:1041700061BE70B55B4C06004FF0000514D00DF029
:104180001BFC08B110250DE00621304607F05EFA51
:10419000411C06D0206614F85C0F40F080002070AF
:1041A00000E00725284670BD14F85C0F20F0800061
:1041B000F5E72DE9F041804688B00D460027084616
:1041C0000DF045FCA8B94046FDF72CF9040003D0DA
:1041D0002078222815D104E043F2020008B0BDE89F
:1041E000F08145B9A07F010603D500F00300022845
:1041F00001D01020F2E7A07FC10601D4010702D54B
:104200000DB10820EAE7374991F85C10C90701D0E1
:104210001120E3E7E17FC90601D50D20DEE700F0BC
:104220000300022805D125B12846FEF7F1FE07005C
:10423000D4D1A07F00F00300012806D00021404621
:1042400009F0FBFB060002D00CE00121F7E7A07F9C
:1042500000F0030001280BD00021404609F0E4FBE8
:10426000060007D0A07F00F00300022804D009E078
:104270000121F2E70420B1E725B12A463146204664
:10428000FEF7EAFE07AB1A4669463046FFF71CF810
:10429000009800B9FFDF00990D20487006F5907076
:1042A000C1F82480486100200881A07F00F003004D
:1042B00001282BD0F5B302200871301D8861707879
:1042C00040090877B078C0F340004877287800F0BC
:1042D0000102887F62F301008877E27F62F3820047
:1042E000887701E05C020020E27F520862F3C3009D
:1042F0008877B27862F304108877A878C87701F1DC
:10430000210228462031FEF7C7FE22E00120087175
:10431000287800F00102087E62F3010008762A780E
:10432000520862F3820008762A78920862F3C3008A
:10433000087600E009E02A78D20862F304100876D3
:1043400024212046FDF7A6F80BE003200871052084
:10435000087625212046FDF79DF8A07F20F08000FB
:10436000A07701A900980AF09CFF022801D000B1B3
:10437000FFDF384632E72DE9FF4FF94A0D4699B085
:104380009A4607CA14AB002783E807001998FDF77F
:1043900049F8060006D03078262806D008201DB03F
:1043A000BDE8F08F43F20200F9E7B07F00F00309A7
:1043B000B9F1010F03D0B9F1020F07D008E03DB900
:1043C0001B98FEF725FE0028E9D101E01B9878BB79
:1043D000B07F00F00300012806D00021199809F0F1
:1043E0002CFB040003D101E00121F7E7FFDF852D5D
:1043F00025D007DCD5B1812D1BD0822D1BD0832D7C
:1044000008D11AE0862D1CD0882D1CD0892D1CD0F7
:104410008A2D1CD00F2020710F281AD001208DF872
:104420003400201D0E902079A8B158E10020F2E759
:104430000FE00120EFE70220EDE70320EBE7052086
:10444000E9E70620E7E70820E5E70920E3E70A2097
:10445000E1E70720A3E7B9F1010F17D0D4E919501C
:1044600080460220019001200090A87898F8021060
:10447000C0F3C000C1F3C00108405FEA000B5DD08B
:1044800050460DF099FA00286CD12DE0D4E9198539
:104490000120019002200090214630461B9AFEF731
:1044A000DBFD1B98007800F00101A87861F30100A2
:1044B000A870F17F61F38200A870F17F490861F371
:1044C000C300A870A17861F30410A8706078400957
:1044D0002870A078C0F3400068701B988078E8705E
:1044E000002068712871C0E7DAF80C000DF064FA5A
:1044F000C0BBDAF81C000DF05FFA98BBDAF80C00CC
:10450000A060DAF81C00E06098F80100A17800F0E3
:10451000010041EA4000A07098F80210C0B2C1F357
:104520000011891E0840A070002084F82000009926
:1045300006F1170002290BD001210AE098F80110BA
:10454000A07801F00101FD2242EA41010840E2E7C2
:10455000002104EB810188610199701C022902D0BD
:10456000012101E028E0002104EB81018861A878A5
:1045700000F00300012849D198F8020000F0030080
:10458000012843D1B9F1010F04D12A1D691D1B98DF
:10459000FEF782FD297998F8040001408DF82C106F
:1045A000687998F8052010408DF8300001432DD02F
:1045B00050460DF001FA08B11020F0E60AF11000A3
:1045C00004F5D47104F17C020490B9F1020F3CD0DF
:1045D0000090CDE9012100210BAB5A462046FEF7A1
:1045E000D5FD0028E9D104F5D67104F19402B9F1A2
:1045F000010F30D004980090CDE9012100210CABCF
:104600005A462046FEF7C2FD0028D6D1A078800782
:1046100040D4A87898F80210C0F38000C1F380015C
:10462000084337D0297898F8000014AAB9F1010F8F
:1046300017D032F810204B00DA4012F0030718D0E0
:10464000012F1ED0022F12D11DE0CDF800A0CDE920
:1046500001210121C0E7CDF800A0CDE90121012110
:10466000CDE732F811204300DA4002F00307032FB0
:1046700007D0BBF1000F0DD0012906D0042904D0CA
:1046800008E00227F5E70127F3E7012801D0042815
:1046900000D10427F07F40F001006BF34100F07778
:1046A000A07881074FF003000CD5A071BBF1000F7B
:1046B00015D100BF8DF85C0017AA31461998FEF796
:1046C00034FD0CE00221022F18D0012F18D0042F46
:1046D00022D00020A071F07F20F00100F07725218A
:1046E0003046FCF7D7FE0DA904F590700AF0B9FD2D
:1046F00010B1022800D0FFDF002050E6A171D9E7F9
:10470000A1710D2104F1240016F02DFC607840F019
:10471000020060700420CDE70120A071DFE72DE9E1
:10472000F04387B0914688460446FCF77BFE0700BD
:1047300006D03878272806D0082007B0BDE8F083D7
:1047400043F20200F9E7B87F00F00300012809D026
:104750000021204609F071F9040006D104E00000B0
:1047600008B301000121F4E7FFDFA679012E08D08C
:10477000B8F1000F0FD048460DF01EF9B8B1102067
:10478000DBE7B9F1000F25D1B8F1000F09D0B8F17E
:10479000010F1FD120E0022E05D0032E05D0FFDF30
:1047A00028E00C2526E0012524E0022522E0B8F1CE
:1047B000020F03D0B8F1010F0AD00BE0032E09D18C
:1047C00000251022494604F1210016F033FB11E0C8
:1047D000022E01D00720B0E70025102104F12100AE
:1047E00016F09FFB5FEA090004D0062106F02EFFB9
:1047F000C4F82100607840F002006070C10713D057
:1048000020F00100607002208DF8000004F121000A
:1048100002908DF804506946FF300AF022FD02280C
:1048200004D018B1FFDF01E084F82050252138467C
:10483000FCF730FE002080E730B587B00D46044617
:10484000FCF7F0FD88B1807F00F0030001280FD055
:104850000021204609F0F1F804000ED028460DF0A2
:10486000ABF838B1102007B030BD43F20200FAE7D0
:104870000121EEE76078400701D40820F3E72946DC
:1048800004F141002022054616F0D4FA607840F089
:104890001000607001070FD520F008006070142030
:1048A0008DF80000694604F5907001950AF0D9FC76
:1048B000022801D000B1FFDF0020D4E770B594B02A
:1048C0000D460646FCF7AEFD18B10178272944D104
:1048D00003E043F2020014B070BD807F00F00300DB
:1048E000012806D00021304609F0A7F8040003D1C2
:1048F00001E00121F7E7FFDFA07902282DD1A078A0
:10490000C0072AD0002302220321304603F050FCC6
:1049100028B30D208DF80D0007A80222811FADF8E5
:10492000142006ABCDE900310C9604F5907402908A
:10493000089400230321304603F0B7FC00B1FFDFE9
:1049400004208DF810008DF824500DA903A80AF05A
:10495000A8FC00B1FFDF0020BDE70820BBE7112065
:10496000B9E770B5064686B014460D4608460DF008
:1049700023F818B920460DF043F810B1102006B006
:1049800070BDA6F57F40FF380DD03046FCF74AFDDC
:1049900030B14378811C22461846FCF7E9FE07E057
:1049A00043F20200EBE72046FDF7F3FC0028E6D1D6
:1049B0001021E01D0CF0B2FCE21D29466846FEF70E
:1049C0009DFC102204F11700019916F033FA002023
:1049D000D5E72DE9F04104468CB0154688460027FE
:1049E00008460DF034F818B928460DF030F818B123
:1049F00010200CB0BDE8F0812046FCF713FD060046
:104A000003D03078272818D102E043F20200F0E703
:104A1000B07F00F00300012806D00021204609F0F5
:104A20000CF8040003D101E00121F7E7FFDF607813
:104A3000400702D5A078800701D40820D9E7B07FCD
:104A400000F00300012818D0D4E91901407800B122
:104A5000B5B1487810B1B8F1000F11D0C5B1EA1D59
:104A600006A8E168FEF74AFC102205F11700079935
:104A700016F0B4F930B104270AE0D4E91910E5E7DB
:104A80000720B6E71022E91D04F1310016F0D2F933
:104A9000B8F1000F06D0102208F1070104F121003F
:104AA00016F0C8F9607840F002006070C10715D0B8
:104AB00020F00100607002208DF8000004F1210058
:104AC0000290103003908DF804706946EF300AF0C0
:104AD000C8FB022804D018B1FFDF01E084F8207081
:104AE00025213046FCF7D6FC002082E7F8B51546B4
:104AF0000E460746FCF796FC040004D020782228D6
:104B000004D00820F8BD43F20200F8BDA07F00F0F9
:104B10000300022802D043F20500F8BD30460CF035
:104B20004BFF18B928460CF047FF08B11020F8BD1C
:104B300000953288B31C21463846FEF7F7FB112852
:104B400014D00028F3D1297C4A08E17F62F30001E8
:104B5000E1772A7C62F34101E177297C890884F8B6
:104B60002010A17F21F08001A177F8BDA17F090766
:104B7000FBD4D6F80200C4F83600D6F80600C4F814
:104B80003A003088A0861022294604F1230016F04E
:104B900051F9287C4108E07F61F38200E077297CAD
:104BA00061F3C300E077287C800884F82100A07FAF
:104BB00040F00800A0770020D3E770B594B00D4610
:104BC00006460BB1072086E6FCF72CFC040007D054
:104BD0002078222802D3A07F400604D408207AE659
:104BE00043F2020077E6C5B12D208DF80000ADF844
:104BF00002601022294601A816F01CF9287C410801
:104C0000E07F61F30000E077297C61F34100E07709
:104C1000287C800884F8200004E02E208DF8000015
:104C2000ADF8026009A9684606F0C3FCA17F21F037
:104C30004001A1774FE670B50D46FCF7F3FB040089
:104C400005D028460CF0DCFE20B1102070BD43F2E8
:104C5000020070BD29462046FEF707FB002070BD0C
:104C600005E000BF10F8012B0AB100207047491E73
:104C700089B2F7D20120704770B50D4600780499CB
:104C80001446042803D0052832D0FFDF70BDA88B5E
:104C90000E2200EB400002EB400018803320088019
:104CA000002CF3D0A88BA081002613E0A87F012858
:104CB00014D006EBC60005EB400106EB460204EB00
:104CC0004202088CD0811020223110320AF08AFB77
:104CD000761CB6B2A089B042E8D870BD05EB86015B
:104CE00006EB460204EB4202088CD0810220EBE77F
:104CF000A88B102200EBC00002EB4000188034208B
:104D00000880A87F012808D0022806D0FFDF002CE9
:104D1000E3D0A88BA081002613E0A073F7E7A87F5B
:104D2000012812D006EBC60005EB400104EB400061
:104D30000A8C028210221230223116F07BF8761C87
:104D4000B6B2A089B042EAD870BD05EB860106EB89
:104D5000C602088C04EB4202223110820220123279
:104D60000AF040FBEBE72DE9F04105780E20DDF875
:104D700018C001F1200402F10E074FF00008022DC7
:104D800006D0032D2DD0062D6AD0FFDFBDE8F081BF
:104D9000CD8B05EB850600EB460018803120ACF882
:104DA0000000002AF2D0087F9581801FC6B214E06F
:104DB00061682088388031F8020BF88031F8020BE6
:104DC0003881BA1C30460AF00DFB06B118B187F8DD
:104DD0000480A7F8028008340A376D1EADB2E7D20E
:104DE000D4E7CD8B05EB850600EB4600188032201A
:104DF000ACF80000002AC9D0087F9581401FC6B2D8
:104E00002AE06168228811F8010BFA803A79430898
:104E100060F3000263F34102830863F38202C30874
:104E200063F3C302030963F30412430963F34512F6
:104E3000830963F386123A71C009787131F8020B65
:104E400038813A4630460AF0CDFA18B187F8028028
:104E5000A7F8008008340A376D1EADB2D1D295E7AD
:104E6000087FCD8B801E86B206F1080068431030A3
:104E700018803520ACF80000002A87D0958102F117
:104E80001007D68107EBC5080BE020883880C7F8EB
:104E9000048032464046616815F0CCFF0834B044C7
:104EA00008376D1EADB2F0D270E72DE9F0471D4610
:104EB000089E0C4681462AB1607E00F58070D08045
:104EC000E08B108199F800000E274FF000084FF09A
:104ED000100A0C287ED2DFE800F096061521293151
:104EE0003F4E636B6B6B207F9146082802D00328EE
:104EF00000D0FFDF2F8030200BE000BFA9F80C802E
:104F0000BDE8F087207F9146042800D0FFDF2F8086
:104F100031203080B9F1000FF0D1F1E7207F9146C8
:104F2000042800D0FFDF2F803220F2E7207F914657
:104F3000022800D0FFDF2F803320EAE7207F1746CA
:104F4000022800D0FFDF3420A5F800A03080002F19
:104F5000D6D0A7F80C80D3E7207F1746042800D0CE
:104F6000FFDF3520A5F800A03080002FC8D04046D4
:104F7000A7F80C8012E0207F1746052802D00628EB
:104F800000D0FFDF1220288036203080002FB7D0DD
:104F9000E08BB881A7F81080B9F80200F881AFE77C
:104FA000207F9146072800D0FFDF2F803720B0E711
:104FB0004FF0140018804FF03800170030809FD059
:104FC000E08BB881A7F8128099F80000092807D073
:104FD0000A2800E017E009D00B280DD0FFDF8FE78B
:104FE000207F0C2800D0FFDF01200AE0207F0D2861
:104FF00000D0FFDF042004E0207F0E2800D0FFDF78
:105000000520B8737CE7FFDF7AE770B50C460546EC
:10501000FCF708FA20B10078222804D2082070BDDD
:1050200043F2020070BD0521284608F006FD20600D
:1050300008B1002070BD032070BDFFB585B00746E4
:105040001720ADF80C00089814460D46022628B922
:1050500008A93846FFF7D9FF00283ED15DB10023EB
:10506000BDF80C203146384603F0A2F8B8B30898D2
:105070000078A0BB05E02078092822D00F282FD087
:10508000FFDF002004A9CDE9001003460290BDF81F
:105090000C203146384603F008F900281DD1089845
:1050A00003A9801DC4E901072046049A04F017FBF8
:1050B00060B3072828D2DFE800F01E1C2727252030
:1050C000220007260023BDF80C203146384603F0A5
:1050D0006FF80028D5D143F2040009B0F0BD08E014
:1050E0000023BDF80C203146384603F061F8002853
:1050F000C7D11120F1E70020EFE70820EDE743F2E8
:105100000300EAE70720E8E70320E6E704980090B9
:10511000BDF80C3004223146384603F048FA002826
:10512000DBD1002DD9D008990D70D6E710B588B025
:105130001C46AAB104238DF800301388ADF80C305A
:105140005288ADF80E208A788DF812200988ADF8C3
:10515000101000236A462146FFF76FFF08B010BD0C
:105160001020FBE72DE9F041074600780C46122895
:1051700039D2DFE800F0383434141036090909094F
:10518000090909090909090904B9FFDF607840F034
:105190000800607028E0002CF8D1FFDFF6E7B8883F
:1051A000052186B2304608F048FC054604B1FFDF11
:1051B00005B9FFDF3146A81D04F08AFA02F0EEFAC5
:1051C000040007D0607840F008006070668002F04C
:1051D000C3FA0AE013213046FDF704FB16E0FFDFB7
:1051E00002E0FFDF00E0FFDF84B1607800070DD54B
:1051F0002078582220F00F00C01C20F0F0009030E2
:105200002070394604F1180015F059FE0020BDE564
:1052100000200870881D04F058BA0A460146901D07
:1052200004F05CBA70B50546052108F006FC0400E0
:1052300000D1FFDF2946A01DBDE8704004F048BA48
:105240002DE9FE4F4FF00009ADF80890ADF804903D
:1052500047880C46054693460521384608F0EDFB85
:10526000060000D1FFDF24B1A780A4F80690A4F8BF
:105270000890297E04F112003827C91E4FF001085A
:105280004FF0360A00900F2970D2DFE801F0F9FAEA
:105290006F6108AD6A70812CB6C9E59595003078CC
:1052A000012800D0FFDFA88B0E2101EBC001ADF873
:1052B00004103021ADF80810002C13D0A08100207C
:1052C0000DE004EBC00132790A747288CA8105EBE3
:1052D0008002401CD38B4B82128C8A8280B2A189BF
:1052E0008142EED8E8E03078012800D0FFDFE88B7B
:1052F0000E2101EBC001ADF804103021ADF808100B
:10530000297F091FC9B20091002CEBD0A081002792
:105310001AE000BF05EBC70A04EBC70808F10E024C
:10532000DAF8241000980AF05DF818B188F81090A7
:10533000A8F80E90BAF82010A8F81210BAF82210A7
:105340007F1CA8F81410BFB2A089B842E2D8B3E01D
:1053500002A8009001AB224629463046FFF78CFC9C
:10536000AAE03078072806D0FFDF04E0A3E0307819
:10537000072800D0FFDFE88BADF808A01230ADF8A9
:105380000400002C38D0A98BA1817188E18123E031
:105390003078082800D0FFDFA88B00F10E01ADF8AF
:1053A00004103721ADF80810002C25D0A081AA8B5D
:1053B00004F10E00296A4CE0E88B123080B23921EA
:1053C000ADF80400ADF80810F4B3A98BA181287ED4
:1053D000102807D00221A173E98B2182EA8B296A68
:1053E000009836E00121F6E702A8009001AB2246C2
:1053F00029463046FFF7B7FC5EE03078092800D038
:10540000FFDF1420ADF80400ADF808701CB3A98BC1
:10541000A181A4F81290A4F8109084F80E804BE0BB
:1054200030780A2800D0FFDF288CADF808701430DF
:10543000ADF804007CB10421A173A98BA181E98B93
:105440002182298C618200E032E02A8C04F1140070
:10545000696A15F0EFFC2FE030780B2800D0FFDFF1
:105460001420ADF80400ADF8087004B30521A17351
:10547000A4F80C90A4F81090A4F812901CE000E09E
:1054800008E002A8009001AB224629463046FFF70B
:105490000CFD11E00D203A21ADF80400ADF8081024
:1054A00034B1A4F80680A4F8089084F80C9003E0C6
:1054B000ABF8000014E0FFDFBDF80400ABF800001B
:1054C00074B1BDF808002080BDF804006080287E1B
:1054D000032805D0102803D0112801D086F80090A9
:1054E0000020BDE8FE8F2DE9F84356880F46804620
:1054F00015460521304608F0A0FA040000D1FFDF70
:10550000A41D33462A4639464046009404F064FA06
:10551000BDE8F8832DE9F0438DB00D461446814671
:1055200007A9FFF772FD002814D14FF6FF76012777
:105530004FF420588CB103208DF800001020ADF8F6
:10554000140008A802460690204605A909F069FF44
:1055500078B107200DB0BDE8F0830820ADF80C50FD
:105560008DF812708DF80000ADF80E60ADF8108067
:105570000CE00798A1780171218841808DF81270A4
:10558000ADF80C50ADF81080ADF80E606A46012100
:105590004846079BFFF751FDDCE708B501228DF86F
:1055A000022042F60202ADF800200A4602236946B4
:1055B000FFF7BCFD08BD08B501228DF8022042F6B8
:1055C0000302ADF800200A4603236946FFF7AEFD4B
:1055D00008BD00B587B079B102228DF800200A8895
:1055E000ADF80C204988ADF80E1000236A4604215E
:1055F000FFF723FD07B000BD1020FBE709B106232C
:1056000094E50720704770B588B00D4614460646ED
:1056100007A9FFF7FAFC00280ED17CB10620ADF8EF
:105620000C508DF80000ADF80E40079B6A4607212C
:105630005C803046FFF701FD08B070BD05208DF895
:105640000000ADF80C50F0E700B587B059B1072362
:105650008DF80030ADF80C20049100236A46082133
:10566000FFF7EBFCC6E71020C4E770B5002488B054
:10567000172391B10A78062A20D2DFE802F01F042E
:10568000041503171523DB1E9DB2CB880BB18E6862
:105690001EB1AB4203D90C20CEE71020CCE7042A80
:1056A00004D08B8853B901E00620C5E7012A13D046
:1056B000022A05D0042A1CD0052A2AD00720BBE7DD
:1056C00009228DF800204A88ADF80C20CA88ADF870
:1056D0000E208968049123E00C228DF800204A886E
:1056E000ADF80C20CA88ADF80E2089680924049111
:1056F00016E00D228DF800204A88ADF80C208A882B
:10570000ADF80E20CA88ADF8102089680A240591EA
:1057100006E00E228DF8002049788DF80C100B243D
:1057200000236A462146FFF788FC85E700B587B06D
:105730000F228DF80020ADF80C1000236A461946A0
:10574000FFF77BFC56E700B587B071B102228DF8F8
:1057500000200A88ADF80C204988ADF80E1000230F
:105760006A460521FFF769FC44E7102042E7000084
:1057700018B1817801293CD101E0102070470188DF
:1057800042F60213C81A4FF48072994233D01CDCDF
:1057900042F60103A1EB030099422CD00CDCF9B1D5
:1057A000B1F5C05F27D06FF4C050081823D0A0F522
:1057B0007060FF381DD11EE001281CD002281AD0CD
:1057C000FF2818D0904214D115E0904213D008DC85
:1057D000012810D002280ED0FE280CD0FF2808D1B6
:1057E00009E0A0F58070013805D0012803D0022817
:1057F00001D0002070470F2070470B2826D008DC0E
:105800001BD2DFE800F01C2025251A252923252797
:105810001E0011281CD008DC0C2817D00D281DD024
:105820000F2815D0102808D110E0822809D084282C
:1058300010D0852810D0872812D003207047002070
:1058400070470520704743F20300704707207047F8
:105850000F20704704207047062070470C207047C7
:105860004FF45050704707280DD2DFE800F00406CF
:10587000040C0C080A000020704711207047072014
:1058800070470820704703207047007810F00F021F
:1058900004D0012A05D0022A0CD110E0000909D158
:1058A0000AE00009012807D0022805D0032803D008
:1058B000042801D007207047087000207047062098
:1058C000704705282AD2DFE800F003070F171F00F2
:1058D000087820F0FF001EE0087820F00F00401C40
:1058E00020F0F000103016E0087820F00F00401C87
:1058F00020F0F00020300EE0087820F00F00401C6F
:1059000020F0F000303006E0087820F00F00401C56
:1059100020F0F000403008700020704707207047EA
:1059200038B50C46050041D06946FFF7AEFF0028A8
:1059300019D19DF80010607861F30200607069462B
:10594000681CFFF7A2FF00280DD19DF800106078B9
:1059500061F3C5006070A978C1F34101012903D04A
:10596000022905D0072038BD217821F0200102E06E
:10597000217841F020012170410704D0A978C9089D
:1059800061F386106070607810F0380F07D0A97846
:10599000090961F3C710607010F0380F02D1607808
:1059A000400603D5207840F040002070002038BD2C
:1059B00070B504460020088015466068FFF7B0FF08
:1059C000002816D12089A189884211D86068807882
:1059D000C0070AD0B1F5007F0AD840F20120B1FB20
:1059E000F0F200FB1210288007E0B1F5FF7F01D92B
:1059F0000C2070BD01F201212980002070BD10B57E
:105A00000478137864F3000313700478640864F373
:105A1000410313700478A40864F3820313700478BC
:105A2000E40864F3C30313700478240964F30413D3
:105A300013700478640964F34513137000788009C7
:105A400060F38613137031B10878C10701D1800764
:105A500001D5012000E0002060F3C713137010BDD2
:105A60004278530702D002F0070306E012F0380F25
:105A700002D0C2F3C20300E001234A7863F30202BA
:105A80004A70407810F0380F02D0C0F3C20005E031
:105A9000430702D000F0070000E0012060F3C502D8
:105AA0004A7070472DE9F04792B00D00804613D040
:105AB000B8F1000F14D01221284615F032FA03AACB
:105AC000FF21012005F0D3FB0024264637464FF482
:105AD00020596FF4205A6DE0102012B0BDE8F08715
:105AE0000720FAE79DF8160001280AD1BDF8140036
:105AF00048450BD010EB0A000AD001280CD0022830
:105B00000CD0042C0ED0052C0FD10DE0012400E0A8
:105B10000224BDF8126008E0032406E00424BDF866
:105B2000127002E0052400E00624BDF81210414581
:105B300040D12C7486B34FF007090DF134080EAA3A
:105B4000CDF80090CDE9012810230022FF21304636
:105B500005F029FCF0B9BDF834002A46C0B20EA900
:105B600009F040FCB0B9AE81B7B108AECDF80090F5
:105B7000CDE9016813230022FF21384605F013FC0C
:105B800040B9BDF83400F11CC01EC0B22A1D09F096
:105B900029FC10B10320A0E70AE0BDF82100E8814C
:105BA000062C05D19DF81600A872BDF814002881B6
:105BB000002092E703A805F062FB002892D0FFF7CF
:105BC0001CFE8AE72DE9F0438BB00E46DDE9129802
:105BD00005461C461746142103A815F0C4F90120F8
:105BE0008DF810008DF80C008DF81180ADF8147050
:105BF00064B1A178C90709D08DF81600E088ADF826
:105C00001A00A088ADF81800A068079001F0C6FD42
:105C1000040025D06580002009A9CDE900101722D5
:105C2000034601460290ADF82020284602F03DFBD5
:105C3000002812D108368DE8700008AA494603A84A
:105C4000099B04F042FE06466078000701D501F08A
:105C500083FD5EB13046FFF706FE0BB0BDE8F08372
:105C600013212846FCF7BEFD0320F6E709980090B3
:105C7000BDF8203004220021284602F098FCECE711
:105C800070B506468AB000200D46059007240490A2
:105C9000069003A900940790CDE901010246102364
:105CA0002946304605F07FFB68B904A9009108A891
:105CB000CDE90140BDF80C3000222946304605F000
:105CC00081F9002801D0FFF798FD0AB070BD05F0FA
:105CD0003CB82DE9FC470546002700780C46B8463D
:105CE000B9460C2873D2DFE800F0B8060D2FCE5F5E
:105CF0005F7F96B49AA504B1FFDF288980B201F0D6
:105D0000BFFEABE0A888042180B2814607F095FE73
:105D1000064604B1FFDF06B9FFDF494606F1080079
:105D200004F03CFA01F03AFD040008D0607840F03D
:105D300008006070A4F8029001F00EFD8FE01321BE
:105D40004846FCF74FFD9EE004B9FFDF6088042160
:105D500007F073FE060000D1FFDFA6F800900020D8
:105D600029791EE005EBC0029268D3B25FEA037C9A
:105D700007D5DB0605D505EBC10030F8020C3080F5
:105D800007E0120A52060AD5307105EBC000C08840
:105D900070806078022740F0080060705EE0401C70
:105DA000C0B28142DED859E0E888ADF8000004B9FD
:105DB000FFDF9DF80100000604D52878062807D0EB
:105DC00005282AD0607840F00800607046E044E082
:105DD0006088042107F031FE060000D1FFDF86F85D
:105DE0000490A888708018E004B9FFDF608804215F
:105DF00007F023FE060000D1FFDF06F1080004F0E3
:105E0000F8FF90F0010F02D1E879000626D56088EE
:105E10000227F080D6E704B9FFDF0227D2E704B9F2
:105E2000FFDF022761880122204601F06DFE4FF05E
:105E30000108C7E7A88986B204B1FFDF686800904F
:105E40002889ADF8040001226946304601F077FE4A
:105E500004E0002CB6D1FFDFB4E7FFDF9CB160782F
:105E6000000710D5B8F1000F0DD12078582220F08E
:105E70000F00001D20F0F00080302070294604F152
:105E8000180015F01CF83846BDE8FC873EB50C003C
:105E900008D06B4601AA002105F0F2FA20B1FFF705
:105EA000ACFC3EBD10203EBD00202080A0709DF8BF
:105EB000050002A900F00700FFF703FD50B99DF8A7
:105EC000080020709DF8050002A9C0F3C200FFF78A
:105ED000F8FC08B103203EBD9DF8080060709DF8F5
:105EE0000500C109A07861F30410A0709DF80510A9
:105EF000890961F3C300A0709DF80410890601D5DB
:105F0000022100E0012161F342009DF8001061F3DD
:105F10000000A07000203EBD70B5144606460D4638
:105F200051EA040005D075B108460BF087FD78B939
:105F300001E0072070BD2946304605F0FCFA10B19B
:105F4000BDE8704059E454B120460BF077FD08B12C
:105F5000102070BD21463046BDE8704096E7002015
:105F600070BD2DE9FE4F05460C46007E0A310091BA
:105F700004F108010027029190460C31821E3E4632
:105F8000BB464FF0010A0191082A7CD2DFE802F0FB
:105F9000F7047B32327EBCF86888042107F04DFD9F
:105FA0005FEA000900D1FFDFB9F8000010B1522705
:105FB0000726ECE051271026002C7CD06888A080B2
:105FC00084F806A099F80400002205EBC0000099AF
:105FD000C08BFFF7A1FF00286ED199F8040005EBF4
:105FE000C000C08B208199F8040005EBC000408CF4
:105FF000E081E6E0B5F82290062822D1E87F00068D
:106000001FD5512709F1140086B2002CD5D0A88BDA
:1060100000220099FFF780FF002873D16888A080D4
:106020000220A071A88B208184F80EA0288C2082E9
:10603000A4F812904A46696ADDF8040014F0FAFEEA
:10604000BFE0502709F1120086B2002C33D0A88B94
:1060500000220299FFF760FF002853D16888A080D2
:10606000A88BE080287E06280ED002202073288C82
:10607000E081E87F4A46C0096073A4F8109004F1FB
:106080001200696ADAE79BE00120EFE768880421E3
:1060900007F0D3FCB5F822A05FEA000900D1FFDFCA
:1060A00009F1080004F0A5FE90F0010F02D1E87F8D
:1060B000000626D501E076E024E00AF1140051271D
:1060C00086B2002C70D06888A080A88B002200992E
:1060D000FFF722FF002815D10220A071A88B208194
:1060E0000420A073288C2082A4F812A05246696A6A
:1060F000019814F09FFE89F804B0A98BA9F802104A
:106100005FE00320BDE8FE8F6888FBF78BF98246CD
:106110006888042107F091FC8146BAF1000F00D194
:10612000FFDFB9F1000F00D1FFDFB9F80600A0F5DD
:106130007F41FF3902D05127142601E05027122653
:106140008CB36888A080502F06D00220A071287FD1
:10615000029901F016F934E0287FA11D01F011F930
:106160009AF82210CDE9001BB9F8022068880023B4
